:020000040000FA
:10000000C8FFFF1FF5020000FD020000FF02000014
:1000100000000000000000000000000000000000E0
:1000200000000000000000000000000001030000CC
:1000300000000000000000000303000005030000B2
:100040000703000007030000070300000703000088
:100050000703000007030000070300000703000078
:100060000703000007030000070300000703000068
:100070000703000007030000070300002D0C000029
:100080000703000007030000070300000703000048
:100090000703000007030000070300000703000038
:1000A0000703000007030000070300000703000028
:1000B0000703000007030000070300000703000018
:1000C00000F002F800F053F80CA030C808382418EB
:1000D0002D18A246671EAB4654465D46AC4201D180
:1000E00000F045F87E460F3E0FCCB646012633425F
:1000F00000D0FB1AA246AB46334318472028000025
:1001000040280000103A02D378C878C1FAD85207C4
:1001100001D330C830C101D504680C6070470000BD
:100120000023002400250026103A01D378C1FBD813
:10013000520700D330C100D50B60704710B5662957
:1001400002D102F059FB10BD632902D101F05AFE21
:1001500010BD002010BD1FB501F060FE040000209E
:10016000002102F0DBFAE0601FBD10B510BD02F007
:100170001FFA1146FFF7EFFF00F06BFD02F037FAB0
:1001800003B4FFF7F2FF03BC02F07EFA70B5054638
:100190000C46164602E00FCC0FC5103E102EFAD2C8
:1001A000082E02D303CC03C5083E042E07D301CC8E
:1001B00001C5361F03E021782970641C6D1C761E72
:1001C000F9D270BD4648C06B0122D2061043444AA2
:1001D000D0631046806B12151043414A906341482A
:1001E000C06A0722120290433E4AD06251203E4A22
:1001F00090600420D060072050621046406A802240
:100200001043394A506200BF3748406A802210408C
:100210000028F9D13448406A40221040002806D016
:100220003148406A1043304A506201207047002133
:100230002D484030C068401881B22B48403080685B
:10024000401881B2284840304068401881B22648A2
:1002500040300068401881B22348C06B401881B21A
:100260002148806B401881B21F48406B401881B212
:100270000846CA0F121851100120C00301431A4842
:10028000C1621F20184A10601046C0680422104343
:10029000154AD060152090600020506207205062FF
:1002A0001046406A082210430F4A50620F2000286F
:1002B00005DBC306DB0E01229A400C4B1A6000BF1F
:1002C0000F20002809DB00BF00BFC306DB0E0122A0
:1002D0009A40074B1A6000BF00BF00BF0020A5E78F
:1002E0000080044000A0044000B0034080E200E031
:1002F00000E100E00748804707480047FEE7FEE7C7
:10030000FEE7FEE7FEE7FEE704480549034A054B22
:10031000704700004D0D0000C1000000C8FCFF1F29
:10032000C8FFFF1FC8FCFF1F0FB41CB5074B06AA70
:100330007B4469460090059801F041FD0020694624
:1003400001F050FD1CBC08BC04B01847B11A0000F5
:1003500070B50C460546012A05D02878800600D5E0
:10036000EA69002302E0012305E05B1C934202D20C
:10037000E05C0028F9D1A869E618C01AA861286ACB
:10038000C01828622846C046C04604E06A68207843
:10039000A968641C9047B442F8D32846C046C046BA
:1003A00070BD7047704770470121C905012341188E
:1003B00042001B06D3185B0E0AD0C1100722D206DA
:1003C000891840075242D14201D55200891870471E
:1003D000090208D50146002A03D0C10FC907002031
:1003E000704710467047420202D000200249704711
:1003F000072109050143F4E70000F87F704700007A
:10040000FFFFFFFFFFFFFFFFFFFFFFFFFEFFFFFFFD
:10041000DB48406B40210843D94948630846806B5C
:1004200009150843D6498863D648C068491508436A
:10043000D449C8600846006949150843D149086194
:10044000D148807880218843CF4988700846407819
:1004500040210843CC494870084640781921084398
:10046000C94948707047C848807880218843C64988
:1004700088707047C448807820218843C2498870BA
:100480007047C148C07802210843BF49C87070470F
:1004900000B50020BD49088004E0BC480088401C2D
:1004A000BA490880B848C07802210840002805D021
:1004B000B548C07880210840002804D1B34800889E
:1004C000B3498842E9DBB1480088B149884205DB7D
:1004D000B048007801210843AE490870AA48C078A6
:1004E000C007C00F002805D0AA48007802210843A1
:1004F000A8490870FFF7C5FF00BDA3490871704700
:10050000A1488078202108439F49887070479E4801
:100510008078102108439C49887070479A488078F9
:100520008021084398498870704700B50246002032
:1005300098490870FFF7F2FFFFF7E9FFFFF7E0FFC8
:100540005106080EFFF7D9FFFFF7A2FFFFF792FF52
:10055000FFF789FF8F48007800BD00B502460B46C3
:1005600000208C490870FFF7D9FFFFF7D0FFFFF795
:10057000C7FF5106080EFFF7C0FFFFF789FF1846B7
:10058000FFF7BBFFFFF784FFFFF774FFFFF76BFF79
:100590008048007800BD7C48007970477A488078B0
:1005A000082108437849887070477748807810217F
:1005B000884375498870704700B502460B46002095
:1005C00074490870FFF7AAFFFFF7A1FFFFF798FF34
:1005D0005106090E481CFFF790FFFFF759FFFFF780
:1005E000E4FFFFF7DBFFFFF7D6FF6B490870FFF76B
:1005F0004FFFFFF73FFFFFF7CEFF1870FFF733FF06
:100600006448007800BD10B503460C4600206149DF
:100610000870FFF783FFFFF77AFFFFF771FF5906B6
:10062000080EFFF76AFFFFF733FF2046FFF765FF6D
:10063000FFF72EFF1046FFF760FFFFF729FFFFF7D8
:1006400019FFFFF710FF5348007810BD4E49487856
:1006500000214D4A517011468978042211434A4ABB
:10066000917011464870704730B503460C461546E8
:10067000002048490870FFF751FFFFF702FFFFF71E
:1006800046FFFFF73DFF5906080EFFF736FFFFF75D
:10069000FFFE2046FFF731FFFFF7FAFEFFF7D6FF18
:1006A0005906090E481CFFF728FFFFF7F1FEFFF778
:1006B0007CFFFFF773FFFFF76EFF37490870FFF706
:1006C000E7FEFFF7D7FEFFF766FF2870FFF7CBFEC8
:1006D0003048007830BD2C488078082188432A496A
:1006E00088707047F0B504460D461646002029492B
:1006F00008700027FFF712FFFFF7C3FEFFF707FFA1
:10070000FFF7FEFE6106080EFFF7F7FEFFF7C0FEDB
:100710002846FFF7F2FEFFF7BBFEFFF797FF6106E3
:10072000090E481CFFF7E9FEFFF7B2FEFFF73DFF99
:10073000FFF7D1FFFFF72FFF1749087007E0FFF71A
:10074000A7FEFFF728FF39467A1CD7B25854B01ECF
:10075000B842F4DCFFF722FFFFF79AFEFFF71BFF1A
:1007600039467A1CD7B25854FFF792FEFFF782FE43
:10077000FFF711FFD855FFF776FE06480078F0BD69
:100780000080044000A004400060064002FCFF1FFF
:100790001027000000FCFF1F04FCFF1F10B50446DB
:1007A000FE480078002801D0082000E00020014623
:1007B0002143FB480078FFF7D0FE10BD70B504461A
:1007C0000D462101F0221140002D01D0012200E050
:1007D00000221143042208461043FFF7DFFF2101E6
:1007E000F0221140002D01D0012200E00022084635
:1007F0001043FFF7D3FF002001E000BF401CE94990
:100800008842FAD370BD70B504460D462106080F24
:100810002946FFF7D3FF2007000F2946FFF7CEFF39
:1008200070BD10B500212720FFF797FE0221084078
:10083000002802D12720DA49087000213F20FFF765
:100840008CFE02210840002802D13F20D4490870C4
:1008500010BD10B5FFF7DCFDFFF7E3FF002001E05E
:1008600000BF401CD0498842FAD300213320FFF753
:10087000CAFF00213220FFF7C6FF00212820FFF722
:10088000C2FF00210820FFF7BEFF00210120FFF773
:10089000BAFF00210C20FFF7B6FF10BD10B50021F4
:1008A0000D20FFF7B0FF10BD10B500210C20FFF7A1
:1008B000AAFF10BD10B500210E20FFF7A4FF10BD48
:1008C00070B504460D46012D00DD0125272C00DD05
:1008D0002724A901091980221143C8B20021FFF77A
:1008E00092FF70BD10B500210120FFF78CFF10BDF5
:1008F00070B50446002505E0605D0121FFF783FF28
:10090000681CC5B2605D0028F6D170BDF8B505461B
:100910000C460027002D06D130202070641C0020DA
:1009200020700120F8BD002D05DA6D422D202070C9
:10093000641C781CC7B22E4605E00A21304600F040
:100940004CFB0646641C002EF7DC002020702E466F
:100950000EE00A21304600F040FB3031601E0446B4
:100960000170781CC7B20A21304600F036FB0646FB
:10097000002EEEDC3846D5E73EB5044669462046F3
:10098000FFF7C4FF05466846FFF7B2FF052D02DA00
:1009900086A0FFF7ADFF3EBD10B504467F4804704A
:1009A0000020FFF7FBFE10BD7CB50546F0247B4818
:1009B0000078002801D0082000E000200221084330
:1009C0000443214676480078FFF7C7FD042004431E
:1009D000214673480078FFF7C0FD01A970480078F0
:1009E000FFF7EAFD042120468843044621466C486F
:1009F0000078FFF7B2FD04200443214668480078E0
:100A0000FFF7ABFD694666480078FFF7D5FD062184
:100A1000204688430446214661480078FFF79DFD43
:100A200069460879F02108406946097809110843A8
:100A300004462C7080202646064030467CBD38B5E2
:100A400000214020FFF7DFFE00240CE000BF6846D5
:100A5000FFF7AAFF0028FAD15649085D0121FFF7E8
:100A6000D2FE601CC4B2082CF0DB00240CE000BFF6
:100A70006846FFF799FF0028FAD14F49085D012128
:100A8000FFF7C1FE601CC4B2082CF0DB00240CE0B0
:100A900000BF6846FFF788FF0028FAD14749085D84
:100AA0000121FFF7B0FE601CC4B2082CF0DB00246B
:100AB0000CE000BF6846FFF777FF0028FAD14049F5
:100AC000085D0121FFF79FFE601CC4B2082CF0DB1B
:100AD00000240CE000BF6846FFF766FF0028FAD14B
:100AE0003849085D0121FFF78EFE601CC4B2082C56
:100AF000F0DB00240CE000BF6846FFF755FF00283C
:100B0000FAD13149085D0121FFF77DFE601CC4B2B6
:100B1000082CF0DB00240CE000BF6846FFF744FF20
:100B20000028FAD12949085D0121FFF76CFE601CFD
:100B3000C4B2082CF0DB00240CE000BF6846FFF7CD
:100B400033FF0028FAD12249085D0121FFF75BFE3F
:100B5000601CC4B2082CF0DB00218020FFF753FE9C
:100B600038BD70B5054600245BE02E5D2F2E52D1B6
:100B7000601C285C00284ED0601C285C2F284AD1BD
:100B8000A01C285C002846D0A01CC4B2285D6E289A
:100B900035D025DC61282AD063281BE005FCFF1F27
:100BA00006FCFF1F204E0000A06806002020202029
:100BB0002020000007FCFF1F0FFCFF1F17FCFF1F7A
:100BC0001FFCFF1F27FCFF1F2FFCFF1F37FCFF1F11
:100BD0003FFCFF1F0DD065280DD06C2817D10CE00D
:100BE0006F280ED073280ED07A2810D10DE0002681
:100BF00010E001260EE002260CE003260AE004269F
:100C000008E0052606E0062604E0072602E0A01E0E
:100C1000C4B200BF00BF01213046FFF7F4FD601CE5
:100C2000C4B2285D0028A0D170BD000010B53349C2
:100C3000086900F0AFFE32490860324800780028A9
:100C400006D1084600683049086001202D49087027
:100C500010BD8CB014222DA106A8FFF797FAFFF75C
:100C6000F8FD0120FFF798FE2DA0FFF741FEFFF7EA
:100C7000A9FA0B900B98002801D000BFFEE75A207C
:100C80001E49086039E01F480078002835D0254803
:100C900001681D48006801F057FD0190FFF784FBD3
:100CA0000446214A214B00F002FC0646204A214B13
:100CB00000F020FC0022204B0391029000F002FC87
:100CC0000591049000F02CFA0F490860084600686E
:100CD000FFF76AFB0446DF2022460B4617A100906F
:100CE00006A8FFF721FB00210846FFF7E9FD06A84B
:100CF000FFF7FEFD002003490870C4E700B0034081
:100D000058FCFF1F54FCFF1F60FCFF1F2020202009
:100D10002020202020202020202020202000000033
:100D20002D2D2D0050FCFF1FB6F3FDD478E9E63FD2
:100D3000D0D03FC1C58A5A3F0000394054656D701C
:100D40003D252E31662563430000000000205349F5
:100D50000860012000045149C0394860062050490C
:100D60000870002048700846C0788006800E202158
:100D700008434B49C87080204A49087000BF484862
:100D80008079102108400028F9D000BF44488079BC
:100D90000C2108400028F9D1704770B54048007810
:100DA000C0210840002847D13D4800780421084070
:100DB00000280ED14C033A48007838210840C10879
:100DC00001208840C5B22946204600F0FCF80446C0
:100DD00001E00124E4033248C078E0210840C10664
:100DE000C90E002926D14011030001F06BFC080553
:100DF000090D1115191D20230520C00144431AE0D7
:100E000005200002444316E00F20C001444312E0D5
:100E10000520400244430EE0B720800044430AE02E
:100E2000B720C000444306E01F48444303E01F4886
:100E3000444300E000BF24E019480078C021084086
:100E4000402815D116484078C007C00F002802D1AD
:100E50000124E40315E01248007A0E2210404208F3
:100E6000012090400146124800F0ADF8044608E029
:100E70000B480078C0210840802801D1040200E01E
:100E800070BD0648C0384068000F411C204600F085
:100E90009AF80849086000BFF2E7000000810440AA
:100EA000004006400050064095080000710B00000D
:100EB00000093D0064FCFF1FF3B50446002081B02B
:100EC00020622046E168884700287AD0252802D091
:100ED0006268A16871E0E1682046002588470646FF
:100EE0000020E0610746A0612A2E0AD0304601F0BA
:100EF0000DFC002827D0B8000019303E0090866114
:100F000019E00298BA00121902C8916102902046B5
:100F1000E1688847012F064617D1E06900281FDAEB
:100F2000202085431CE000980A21806948430099ED
:100F30008019303888612046E1688847064601F00C
:100F4000E5FB0028EFD1012F0AD02E2E08D1204634
:100F5000E16888470646202005437F1C022FC3DB3B
:100F6000A069002803DA4042A06101200543E80798
:100F700001D010208543002E23D030464138192857
:100F800003D80120C00205432036204625603146A3
:100F9000029A1546FFF7D2F800280BD0012806D098
:100FA000ED1DE808C000083002908AE709E02D1D19
:100FB000029586E762683046A1689047206A401C27
:100FC0007EE7206AFEBD002203098B422CD3030A70
:100FD0008B4211D300239C464EE003460B433CD486
:100FE000002243088B4231D303098B421CD3030AEE
:100FF0008B4201D394463FE0C3098B4201D3CB011E
:10100000C01A524183098B4201D38B01C01A52414D
:1010100043098B4201D34B01C01A524103098B4251
:1010200001D30B01C01A5241C3088B4201D3CB003C
:10103000C01A524183088B4201D38B00C01A52411F
:1010400043088B4201D34B00C01A5241411A00D2CF
:1010500001465241104670475DE0CA0F00D0494238
:10106000031000D34042534000229C4603098B42A8
:101070002DD3030A8B4212D3FC22890112BA030A30
:101080008B420CD3890192118B4208D389019211B2
:101090008B4204D389013AD0921100E08909C30937
:1010A0008B4201D3CB01C01A524183098B4201D339
:1010B0008B01C01A524143098B4201D34B01C01A24
:1010C000524103098B4201D30B01C01A5241C3089C
:1010D0008B4201D3CB00C01A524183088B4201D30B
:1010E0008B00C01A5241D9D243088B4201D34B0026
:1010F000C01A5241411A00D20146634652415B1068
:10110000104601D34042002B00D549427047634648
:101110005B1000D3404201B50020C046C04602BD6E
:101120000246C80FC00781434B0030B54B405B00FF
:101130009B0D20D01923DB06C91801231B059942FA
:1011400020DB0324A40704251346AB400BD3002B5C
:1011500004D1EB0613409B00E34204D4012464074E
:10116000002312195941FF231B0599420BD2C900D4
:101170000143500F09E0CB0204D5014308030243A9
:1011800005D0054830BDFF21C905084330BD0846DC
:1011900007210905884330BD0000C07FF0B50C462B
:1011A000871A9C410D46861A9D4103D2C01BA1415E
:1011B000D21963410D0D1F0DC94EEC1BAE435CD01F
:1011C0007F057F0D0026002F51D02D05AC46A94389
:1011D000DD020123ED0A1B051D4320231B1B24D424
:1011E0001746E740381871412F46E740CC199D401B
:1011F0002818314661410C0D27D161449A4013D51E
:101200000023401C594152000ED1400840000122E9
:101210004B005205D34207D305204007C14201D5F8
:10122000B04900E0B0493046F0BD6B00002A00D064
:1012300001229A181F23203C1B1B01D5002302E02A
:10124000E540281871410C0DD7D001242405091957
:10125000C407CD0740084908E40F28436144002C27
:10126000D5D00024401C61419A40D0D1CDE76A0519
:10127000520DD9D1C90FC907D5E79C4D4E000028A2
:1012800001D0012400E0002434195F00002A01D0BD
:10129000012600E00026BE19954FAC420CD8AE42A4
:1012A0000AD8B44206D001256D05EC42BCD01046E8
:1012B0001946F0BD9942FCD000203946F0BDF0B58A
:1012C0001FB40C460F46811A9F412546861A9D4140
:1012D00006D20125ED076F40401ABC4152187B41F0
:1012E000210D1E0D8D1BAC467D4D8D437ED07505A9
:1012F0006D0D7CD00D05AE46AC431B031B0B794D29
:1013000052429D41202366469B1B14D31746F7404B
:10131000381800260090744160462F460741E419B2
:1013200000989D402818664116D4714671189A405D
:1013300025D5012320E093182A466A415200002B4C
:1013400000D0521C1E23203E9B1B002B61DD35412B
:10135000EE1728186641E8D5001876415B1C9A40C4
:1013600000D3401C4B05F3181524E34010D3002B89
:1013700052D071467118D30FC01802D3491C05B062
:10138000F0BD0123DB079A42F9D140084000F6E79F
:1013900001225205B21801D1002853D00123CC0AF2
:1013A000DB029943891E002A08D1020C03D0020CEB
:1013B0000004103902E00246002020390023550BBA
:1013C00005D112020823550B01D152010D23550CF2
:1013D00001D112011B1DD50C01D192009B1C150DD2
:1013E00001D152005B1C2025EE1A01E02CE022E026
:1013F0000546F54015439840CA1AE10769181305D8
:10140000C918002ABBDA032040070818C10FC90712
:101410000FE071466118B2E7F10740080843711008
:1014200071444A000CD001235B059A42A7D2C90F30
:10143000C9070020A3E74905490D26D1002001E096
:101440000028F4D100219AE7284D6600002801D039
:10145000012100E0002171185F00002A01D001265F
:1014600000E00026BE19224FA94210D8AE420ED885
:10147000B14208D001256D05E94206D01946A802FF
:10148000414010467BE79C4201D0214677E700208F
:10149000394674E710B50C465C4005D50124E407D5
:1014A0006340FFF70CFF10BDFFF778FE10BD30B4AE
:1014B0000C465C4004D50124E407634030BC6DE673
:1014C00030BCFCE670B50124E40761400D465D4088
:1014D00002D4FFF763FE70BD6340FFF7F0FE70BDFE
:1014E000FF0700000000F0FF0000F07F0000E0FFB9
:1014F0000000F87FF0B5F94D0C091E092C402E4074
:101500002F468BB0A7437DD0B543FCD0002E7AD0B8
:10151000002CFCD00D465D40ED0F2543AC1BFF2594
:10152000AD0464190894C502440DC9022143500D4D
:10153000DC0204430120C00701430443D2020191AD
:10154000200C110C00958C46010423468B430A9114
:1015500061460904E24D8A430991010A7D44491913
:101560008039097805464D4301266D18F605751B2F
:101570006943C90C640B891C4C436418B5012C1BCE
:10158000250C2E04B4434C434D43210C69188909A2
:101590000591009DE90701D00121C90704912C465E
:1015A00001996708CD072F434C08059DE10B4D437A
:1015B0002D0C29466646754302950D4645432E4639
:1015C000029D7D1BB44100950D465D4301942C0C9A
:1015D0002F040D465543AE462D0C3D430295039412
:1015E0007546049C2D04641B049406D2029C039D42
:1015F000641C002675410395029401AC70CC009FD9
:101600007D1B01E03EE162E1B441090400950791D0
:1016100001940599A4086143090C0C464443650BE9
:10162000E7040C4666467443A646640B3C430395A8
:1016300002947446049DE4042C1B049406D2029C7C
:10164000039D641C002675410395029401AC70CC87
:10165000009F7D1BB44101940C465C430095650FCF
:10166000E7000C465443A646640F3C43039502949E
:101670007446049DE4002C1B049406D2029C039D36
:10168000641C002675410395029401AC70CC009F48
:101690007D1BB441AE09AF06049DC900AD092F43BF
:1016A000049DA406AD060495079D3443691807916F
:1016B000059DE10B4D432D0C294666467543029569
:1016C0000D4645432E46029D7D1BB44100950D46B7
:1016D0005D4301942C0C2F040D465543AE462D0C52
:1016E0003D43029503947546049C2D04641B0494A9
:1016F00006D2029C039D641C00267541039502944A
:1017000001AC70CC009F7D1BB44101948C05069404
:10171000079C890A611800950791019C0599A40806
:101720006143090C0D464543680BEF040D466446C2
:1017300065436C0B3C43049FED047D1BAC4602D219
:101740000025641C6841009E019D371B85410846A9
:10175000584301950C46460FC5005443600F28437B
:101760006546E4002C1B02D20025401C6E41019D01
:101770003F1AB5412846BD09800628438446A00982
:10178000BF064E020699A40676180743079D00205F
:1017900068410A99079019430020099B0090604610
:1017A000FF1913434041E20F64003A43A446044644
:1017B000D71A8C41A04203D90120009020463A4616
:1017C000C70F941840416246D20F2243644664001A
:1017D0000494009CBE466400D71AA44604460297AF
:1017E0008C417746002F01D1A04204D96046401CAD
:1017F0008446029A2046C40FA64694184041049A93
:101800000546D20F224364466400D31A8D417146C7
:10181000002901D1A84202D928461A46641C104367
:101820000122002800D0164361020020079B89197D
:1018300004465C410223002C02DB49181346644134
:10184000089DCE0A2D145D194B056705E10A2C058C
:101850000D1908993E43C9076940002B08D09340F1
:1018600006D30022761C5141002B01D17608760068
:101870001C4A002D43DB154241D0AA433FD03046DD
:101880000BB0F0BD06180D464D41174C7642AC41E9
:101890001AD395181C465C41134A6D42A24113D3DA
:1018A000012252054C00D4420AD15C00D4420BD034
:1018B0004B4002D592021143E2E749004908DFE7B5
:1018C0005940C90FC90718E000200849D8E7054862
:1018D00001420DD10342F7D0F2E700000000FF07FC
:1018E000A81200000000F07F0000E0FF0000F87F79
:1018F000114859400143C01241400020C0E7012374
:10190000089A9B069A4205DC032252078918C90FE0
:10191000C907B5E7052252078918074A1143D212B1
:101920005140ADE770B515461C4602460B462846A9
:101930002146FFF7DFFD70BDFFFFFF7F1F22030C75
:1019400002D10F2200041CD0030E01D10002083A7C
:10195000030F01D10001121F830F01D18000921EDD
:10196000002801DB4000521ED20551180212511806
:101970001922904004D3491C002801D1490849008C
:1019800008467047C10FC90700D0404201229207A4
:101990001143D3E701218907D0E700007047FFB565
:1019A0000C461E468FB003CA089009914F007D0D6A
:1019B00000D16D1E002108460020C0460321099A6F
:1019C00089050840002A03DA820080184008084090
:1019D000800D01280A9002DD0020C0430A9008987B
:1019E00007430DD0F048F1492818484307141898C8
:1019F00000281DD07542291E1DDD0A9842421BE0B9
:101A00001898012802D00020302104E00020F24381
:101A100005E02154401CB042FBDB30460022189BFD
:101A2000002121540F998B600A60486013B0F0BD0B
:101A3000BD1B6D1CDFE70A9A002900DA69420BA87A
:101A400000F072FA0BAB07CB03AB07C308990998F8
:101A500000F0D6FA6B4607C30146D5480918002D99
:101A600000910BDDD24903980A9A4942401800239D
:101A700003A90390684600F033FD08E003990A9A31
:101A80000023081803A90390684600F0D3FC6B46B6
:101A900007C30004000C03D00020C043410800E04D
:101AA0001046189A002A03D00022009215461EE024
:101AB000751E05D400F0B6F9303262556D1EF9D5A9
:101AC00001220843079602D000227F1C04E0207800
:101AD000302801D100227F1E002A069787D01EE001
:101AE000112D07DA00F09EF9303262556D1C024666
:101AF0000A43F5D1084303D00098002819D00EE01E
:101B00000021681E05E0235C625C63542254401E81
:101B1000491C8142F7DBA81B401E07950690079AD7
:101B200018990020A0540F98079B069A81600CC05A
:101B30007CE711260020189059E7D21DF0B50D461C
:101B40000446D10893B0C90003C90C900D9100F070
:101B5000C7FD02460D98C00F01D02D2007E0206878
:101B6000810701D52B2002E04007C00F4001032A66
:101B70000F9001D0072A05DB03462946204600F0D6
:101B80008FF90EE12078800601D5E76900E006278D
:101B90002846652D04D0662814D0672D69D12DE024
:101BA0000020112F009001DB112300E07B1C0CAA08
:101BB00003A910A8FFF7F3FE1199002610987D1CC9
:101BC0000E9142E001203B460CAAC0070B90012079
:101BD000009003A910A8FFF7E2FE119D129810993A
:101BE000002600280E9501D1781C0D18781B02D410
:101BF00046427D1C761EE81B00903AE0012F00DA79
:101C000001270020112F009001DD112300E03B4649
:101C10000CAA03A910A8FFF7C2FE11993D4610981F
:101C200000260E91217809070BD40E99A94200DAFB
:101C30000D4603A9012D04DD4A19203AD27F302A2E
:101C400006D0B84201DA011D04DA012100910FE04B
:101C50006D1EEFE7002802DC86192D1A03E0411CF7
:101C6000A94200DD0D46801B401C00900120C007EA
:101C70000B902078000705D40098A84202DB0020D2
:101C8000C043009069460020C8720B98012102AF42
:101C90000337C907884225D0022010902B201190CD
:101CA0000B9800280BDA40420B902D20119006E093
:101CB0000B9800F065FC30317F1E0B903970109945
:101CC000481E00291090F3DC0B980028F0D11198E1
:101CD0007F1E38702088000501D5452000E0652072
:101CE0007F1E387001A8C01BC01D0B900F980028E4
:101CF00000D0012041190098C01709180B98081846
:101D0000A169081A401EA0612078C00602D42046AE
:101D1000C046C0460F98002805D06268A168904769
:101D2000206A401C20622078C00625D52046C04687
:101D3000C04621E0002E07DB0E98B04204DD03A868
:101D40006268805DA16802E06268A1683020904707
:101D5000206A761C401C20620098401E00280090DB
:101D60000AD100F05BF8C06862680168405CA16855
:101D70009047206A401C206228466D1E0028D9DC4E
:101D800007E062683878A1687F1C9047206A401C91
:101D900020620B99481E00290B90F2DC2046C046B9
:101DA000C046032042E6000001FCFFFF104D00008A
:101DB000E1DFFFFF01694A1C02610878704700B546
:101DC0008FB0029100210591054901937944039157
:101DD000114604906846FFF76FF80FB000BD000091
:101DE000E5FFFFFF0A681070521C0A60704710B5CB
:101DF0004369002B02D0C046C04601E0FEF7A8FAB6
:101E0000012010BD1278014624310A7000224A7068
:101E10000122ECE711680022D243E8E7004870474E
:101E200088FCFF1F0B4670B50246890780080843EF
:101E300019469D08141AA9412509080705430809F0
:101E40002C194841250A01060D43010A2C1941416C
:101E5000200C0D0428430D0C00194D4100214019A0
:101E60004D41C00869070843E908840F8D002543E8
:101E7000840024184D4124196D41121BAB4107E029
:101E80000925ED432C11521963410024401C614186
:101E90001C460A250026551BB441F1D270BD000036
:101EA000F8B51F46044601230068DB0203260146FD
:101EB0001840072A05DB002801D017A506E017A562
:101EC00004E0002801D016A500E016A510208143EB
:101ED0002160A069C01E002FA06101D0401EA0613A
:101EE0002046C046C046002F09D038466268A16827
:101EF0009047206A401C2062C01C206206E0206AD5
:101F0000FAE762682878A1686D1C9047761EF8D2BF
:101F10002046C046C046F8BD4E414E006E616E0080
:101F2000494E4600696E6600F7B516468AB03348DA
:101F300078446C4603467C33C06F5A689B680DC476
:101F40002E487844763003AC0DC80DC43720C0014C
:101F5000081837211B30FFF740F805460C46803D36
:101F60001B3C02D56442012000E0002000270990BC
:101F700010E0E0070CD00C20204978437944324629
:101F80004C3941186846012300F054FA6B4607C3E8
:101F900064107F1C002CECD1184F7F442E3F16E0BC
:101FA000E80712D02001C0190EC8069108930792C5
:101FB0000068F04201D1981908903246012306A921
:101FC00003A800F037FA03AB07C36D10641C002DA3
:101FD000E6D10998002806D032466946012303A8B5
:101FE00000F07EFA05E001233246694603A800F0BE
:101FF00021FA0A9B07C30DB0F0BD00005409000090
:10200000034640000A4610B5400D0BD00121C90718
:102010000F24A40200191C0364082143540D21431A
:10202000D20207E000210120F2E7D40F490021434A
:102030005200401E0029F8DADB0FDB07184310BD01
:10204000FFB50D46144685B04868516800F022FB84
:1020500000910190A868A16800F01CFB0291039018
:10206000A868616800F016FB029A12188242029278
:1020700001D2012000E00020019A0B18D21800289C
:10208000019202D08A4202D903E08A4201D20120A1
:1020900000E000200099081800906868A16800F02E
:1020A000F9FA029A12188242029201D2012000E04B
:1020B0000020019A0B18D2180028019202D08A42FF
:1020C00002D903E08A4201D2012000E000200099F9
:1020D0000818009028682168400049004008490815
:1020E0004018FA49471814E001994000C90F084305
:1020F0000090019802994000C90F0843019002988E
:1021000003994000C90F08430290039840007F1EC6
:10211000039000980028E7DA0898002801D0EC4ED8
:1021200000E00026B74201DA012000E0002000288C
:1021300004902AD0F71BF806C00E15D0029B202170
:10214000091A039A8B401A430392029A019BC240D8
:102150008B401A430292019A009BC2408B40009927
:102160001A430192C14000917B110DD06F460320AC
:10217000C11A03D500218200B95003E08A00810012
:10218000BA587A50401EF3D5374603980299002872
:1021900000D00120014308980291002808460CD085
:1021A000002800D001200199019A49050843012126
:1021B000D20AC902D202019200E001210E9B012243
:1021C000D207012B02D0002B03D013E0002807D147
:1021D00020E0904204D890420CD1019B0B4209D0E0
:1021E000019B5918019105D10099491C009101D119
:1021F0007F1C009200280DD0102108460020C04608
:102200000498002806D00F98002803D0082108461B
:102210000020C04628682168019B009A4840C10FF1
:102220000598C90739430EC009B0F0BDFFB587B0A6
:10223000099A089808995368926840688968964690
:102240000022039317469446089A12685300099A8D
:102250005B081268520052089A1A9E4BD4180A9AC8
:10226000002A01D0352200E04022069200220123FC
:1022700015460492DB07059324E0002D05D1754631
:102280000346039E4D1BB34109D375466646039B27
:10229000491B049D9841059B7519AC465F416346F7
:1022A0003B4308D0059B049EDD0776082E435B0860
:1022B0000496059301E0521E641EC50FED074918F0
:1022C0004041521C069B9A42D7DB002D04D1754633
:1022D000039A6B1A824101D203200CE0039A0B4649
:1022E0006B404240134303D0014303D0012002E07E
:1022F000022000E000206146019100210097029138
:102300000A99002905D0614640020143704B0191B2
:1023100002E08007002302909C4201DA012000E0E5
:10232000002007003AD01A1BD006C00E15D0029D1F
:102330002021019C091AC5408C402543029C8C40F9
:1023400000D001242543019C0295009DC4408D408E
:1023500000992C430194C140009154111DD06D4649
:102360000221002202290CD10320001B07E00028D3
:1023700004DB8600AE59002E00D00122401C032849
:10238000F5DB081B02D588002A5004E0800028589D
:1023900010438A00A850491EE3D51C460A9800281D
:1023A00002980CD0002800D001200199019A49051B
:1023B00008430121D20AC902D202019200E00121A0
:1023C000109B0122D207012B02D0002B03D013E077
:1023D000002807D11FE0904204D890420CD1019B05
:1023E0000B4209D0019B5918019105D10099491C54
:1023F000009101D1641C009200280CD010210846E5
:102400000020C046002F06D01198002803D00821D4
:1024100008460020C04608980999019A009B006868
:1024200009684840C10F0798C907214382600AC064
:102430000BB0F0BD00B585B0019300920A4601468D
:10244000002302A8FFF7FCFD02A807C805B000BDE5
:10245000FFB50A461F4685B00799019301230091F5
:10246000014602A8FFF7ECFD02990398049ECA0FEB
:102470004900D20700920F22490892028C1A0021CB
:10248000002800DB0C46450013486D08844214D335
:10249000079A002A04DA441E0026104DF64302E093
:1024A00004460D460E46102108460020C046002F67
:1024B00003D0042108460020C0462005E90A08434D
:1024C000009908436905F20A1143ADE602C0FFFF17
:1024D000013C0000FF3F0000FF070000FFFFFF7FFF
:1024E00000B585B0019300920A460146002302A878
:1024F000FFF79CFE02A807C8A8E7FFB50A461F46DB
:1025000085B00799019301230091014602A8FFF7C6
:102510008DFE02990398049ECA0F4900D2070092CB
:102520000F22490892028C1A0021002800DB0C4679
:10253000450011486D08844214D3079A002A04DA32
:10254000441E00260D4DF64302E004460D460E469D
:10255000102108460020C046002F03D00421084661
:102560000020C0462005E90A084300990843690590
:10257000F20A114358E60000FF070000FFFFFF7F4B
:1025800001468008081A02091018020A1018020CE5
:102590001018C008820012185200891A01E0401C6D
:1025A0000A390A29FBD270470048704768FCFF1FB0
:1025B0007546FFF7F9FFAE46050069465346C00869
:1025C000C000854618B020B5FDF79EFE60BC002710
:1025D0004908B6460026C0C5C0C5C0C5C0C5C0C5EF
:1025E000C0C5C0C5C0C5403D49008D46704710B547
:1025F0000446C046C0462046FDF7C2FD10BD00009F
:10260000024670B50A4392072AD11E4DEE0104C856
:1026100008C9541B9443344017D0D0B2D9B2401AE1
:102620002106014310D190B299B2401A210401430E
:102630000AD110021902000A090A401A21020143B4
:1026400002D1100E190E401A70BD9A42DFD010BA96
:1026500019BA884201D9012070BD0020C04370BD65
:1026600002780B78401C491C002A09D09A4207D1F5
:1026700002780B78401C491C002A01D09A42EFD006
:10268000D01A70BD0101010101491820ABBEFEE75F
:1026900026000200F8B5040C8BB2264682B25E43D7
:1026A000104658430D0C370C36040021801916468D
:1026B00079416E43370C36048019264679416E43C2
:1026C0008919F8BD30B47446641E2578641CAB4289
:1026D00004D3635D5B00E31830BC18471D46F8E780
:1026E0004900CA020243100000D004204A0D01D064
:1026F00001221043044A490D914201D102210843AD
:10270000012800D105207047FF07000030380A2853
:1027100001D20120704700207047000010B5002949
:102720000AD00878002807D005487844FFF768FFEA
:10273000002801D0002010BD0248784410BD0000E0
:10274000120200000A02000070B5420064414B0012
:102750005C41120E39D01B0E38D0FF2A3CD0FF2B23
:102760003AD040024902400A490A060045184E4341
:10277000000A090AD2184843ED017F3A0104731A8E
:102780004019190C4318990F04D001215B0849071F
:102790005B1A521CD80904D3401CF50301D19D06D5
:1027A00007D0FF2A08D2D50506D0E40720434019F8
:1027B00070BD0125A843F4E7002A01DCE00770BDE5
:1027C0002402FF202043C00570BD1B0EFF2A03D04A
:1027D000FF2B01D0E00770BDFF2645003606B5424D
:1027E00006D84D00B54203D8D218FF2A00D0E7E73B
:1027F000004870BD0000C07F03B40248784484469E
:1028000003BC60473BF3FFFF80807F7E7D7C7B7A4B
:102810007978777676757473727171706F6E6E6D8C
:102820006C6C6B6A6A696868676666656464636332
:1028300062616160605F5F5E5E5D5D5C5C5B5B5AB8
:102840005A59595858575756565555555454535325
:1028500052525251515050504F4F4F4E4E4D4D4D80
:102860004C4C4C4B4B4B4A4A4A49494948484847CB
:102870004747474646464545454444444443434309
:10288000434242424241414102400000000000A058
:102890000000000005400000000000C8000000002B
:1028A0000C4000000000409C0000000019400000A7
:1028B0000020BCBE0000000034400000BFC91B8ED9
:1028C00000000004B5400000504BCFD06607E2CFB7
:1028D000010000006C4100003E8251AADFEEA734E7
:1028E00001000000D9420000DCB5A0E23A301F9799
:1028F000FFFFFFFFB4450000FD25A0C8E9A3C14FBD
:10290000FFFFFFFFFF3F000000000080000000000D
:10291000FF3F000000000080000000005829000078
:1029200000FCFF1F6800000004010000C029000037
:1029300068FCFF1F60030000200100001C00000075
:1029400043000000F8FFFFFF0C0000000E00000035
:102950000F0000002E000000000000000001270012
:10296000000E010F110F0102040E1010110E0000D5
:10297000000E111F100E020C0406040C040E0002BF
:102980000416191111110002040E1111110E00028A
:10299000040E100E011E0004001F0204081F000296
:1029A000041F0204081F000016493A3A0000000004
:1029B0000000000000000000000000000000800295
:04000005000000C136
:00000001FF
